{
    "contractName": "TUINController",
    "abi": [
        {
            "inputs": [],
            "stateMutability": "nonpayable",
            "type": "constructor"
        },
        {
            "inputs": [
                {
                    "internalType": "address",
                    "name": "tuinToken",
                    "type": "address"
                },
                {
                    "internalType": "address",
                    "name": "_to",
                    "type": "address"
                },
                {
                    "internalType": "uint256",
                    "name": "_amount",
                    "type": "uint256"
                }
            ],
            "name": "newMint",
            "outputs": [
                {
                    "internalType": "bool",
                    "name": "",
                    "type": "bool"
                }
            ],
            "stateMutability": "nonpayable",
            "type": "function"
        },
        {
            "inputs": [],
            "name": "owner",
            "outputs": [
                {
                    "internalType": "address",
                    "name": "",
                    "type": "address"
                }
            ],
            "stateMutability": "view",
            "type": "function"
        },
        {
            "inputs": [
                {
                    "internalType": "address",
                    "name": "tuinPool",
                    "type": "address"
                },
                {
                    "internalType": "address",
                    "name": "_yieldAddress",
                    "type": "address"
                },
                {
                    "internalType": "uint256",
                    "name": "amountIn",
                    "type": "uint256"
                }
            ],
            "name": "putDepositYield",
            "outputs": [
                {
                    "internalType": "bool",
                    "name": "success",
                    "type": "bool"
                }
            ],
            "stateMutability": "nonpayable",
            "type": "function"
        },
        {
            "inputs": [
                {
                    "internalType": "address",
                    "name": "tuinPool",
                    "type": "address"
                },
                {
                    "internalType": "address",
                    "name": "_token",
                    "type": "address"
                },
                {
                    "internalType": "uint8",
                    "name": "_funcNo",
                    "type": "uint8"
                }
            ],
            "name": "setAcceptedToken",
            "outputs": [
                {
                    "internalType": "bool",
                    "name": "success",
                    "type": "bool"
                }
            ],
            "stateMutability": "nonpayable",
            "type": "function"
        },
        {
            "inputs": [
                {
                    "internalType": "address",
                    "name": "tuinPool",
                    "type": "address"
                },
                {
                    "internalType": "bool",
                    "name": "_approved",
                    "type": "bool"
                }
            ],
            "name": "setApproveYield",
            "outputs": [
                {
                    "internalType": "bool",
                    "name": "success",
                    "type": "bool"
                }
            ],
            "stateMutability": "nonpayable",
            "type": "function"
        },
        {
            "inputs": [
                {
                    "internalType": "address",
                    "name": "tuinPool",
                    "type": "address"
                },
                {
                    "internalType": "uint256",
                    "name": "_newRate",
                    "type": "uint256"
                }
            ],
            "name": "setExchangeRate",
            "outputs": [
                {
                    "internalType": "bool",
                    "name": "success",
                    "type": "bool"
                }
            ],
            "stateMutability": "nonpayable",
            "type": "function"
        },
        {
            "inputs": [
                {
                    "internalType": "address",
                    "name": "tuinToken",
                    "type": "address"
                },
                {
                    "internalType": "uint256",
                    "name": "_newMaxSupply",
                    "type": "uint256"
                }
            ],
            "name": "setNewSupply",
            "outputs": [
                {
                    "internalType": "bool",
                    "name": "",
                    "type": "bool"
                }
            ],
            "stateMutability": "nonpayable",
            "type": "function"
        },
        {
            "inputs": [
                {
                    "internalType": "address",
                    "name": "_newOwner",
                    "type": "address"
                }
            ],
            "name": "setOwner",
            "outputs": [],
            "stateMutability": "nonpayable",
            "type": "function"
        },
        {
            "inputs": [
                {
                    "internalType": "address",
                    "name": "tuinPool",
                    "type": "address"
                },
                {
                    "internalType": "string",
                    "name": "_date",
                    "type": "string"
                }
            ],
            "name": "setRedeemableDate",
            "outputs": [
                {
                    "internalType": "bool",
                    "name": "success",
                    "type": "bool"
                }
            ],
            "stateMutability": "nonpayable",
            "type": "function"
        },
        {
            "inputs": [
                {
                    "internalType": "address",
                    "name": "tuinPool",
                    "type": "address"
                },
                {
                    "internalType": "address",
                    "name": "_newOwner",
                    "type": "address"
                }
            ],
            "name": "setTUINPoolOwner",
            "outputs": [
                {
                    "internalType": "bool",
                    "name": "",
                    "type": "bool"
                }
            ],
            "stateMutability": "nonpayable",
            "type": "function"
        },
        {
            "inputs": [
                {
                    "internalType": "address",
                    "name": "tuinToken",
                    "type": "address"
                },
                {
                    "internalType": "address",
                    "name": "_newOwner",
                    "type": "address"
                }
            ],
            "name": "setTuinOwner",
            "outputs": [],
            "stateMutability": "nonpayable",
            "type": "function"
        },
        {
            "inputs": [
                {
                    "internalType": "address",
                    "name": "tuinToken",
                    "type": "address"
                },
                {
                    "internalType": "address",
                    "name": "_newPool",
                    "type": "address"
                }
            ],
            "name": "setTuinPoolAddress",
            "outputs": [],
            "stateMutability": "nonpayable",
            "type": "function"
        },
        {
            "inputs": [
                {
                    "internalType": "address",
                    "name": "tuinPool",
                    "type": "address"
                },
                {
                    "internalType": "address",
                    "name": "_token",
                    "type": "address"
                }
            ],
            "name": "setYieldAddress",
            "outputs": [
                {
                    "internalType": "bool",
                    "name": "success",
                    "type": "bool"
                }
            ],
            "stateMutability": "nonpayable",
            "type": "function"
        }
    ],
    "bytecode": "608060405234801561001057600080fd5b50600080546001600160a01b031916331790556115f8806100326000396000f3fe608060405234801561001057600080fd5b50600436106100ce5760003560e01c80636cc371401161008c578063ad9af64311610066578063ad9af643146101ad578063bd5c5420146101c0578063c37f27bc146101d3578063ecbf4b2c146101e657600080fd5b80636cc371401461015c57806388844bb91461016f5780638da5cb5b1461018257600080fd5b8062f264d6146100d35780630a47dd35146100fb57806313af40351461010e578063228f8a5e1461012357806329d0a02e146101365780632a57c13b14610149575b600080fd5b6100e66100e136600461130a565b6101f9565b60405190151581526020015b60405180910390f35b6100e661010936600461133d565b6102ff565b61012161011c366004611379565b610621565b005b6100e66101313660046113b1565b61065a565b6100e6610144366004611484565b610757565b6100e66101573660046114bb565b61085e565b6100e661016a36600461133d565b610b87565b61012161017d36600461130a565b610c99565b600054610195906001600160a01b031681565b6040516001600160a01b0390911681526020016100f2565b6100e66101bb36600461130a565b610dab565b6100e66101ce366004611508565b610ec0565b6100e66101e1366004611508565b610fcb565b6101216101f436600461130a565b6111e2565b600080546001600160a01b0316331461021157600080fd5b6040516001600160a01b03838116602483015284169060440160408051601f198184030181529181526020820180516001600160e01b03166304c8ed6960e21b1790525161025f9190611556565b6000604051808303816000865af19150503d806000811461029c576040519150601f19603f3d011682016040523d82523d6000602084013e6102a1565b606091505b505080915050806102f95760405162461bcd60e51b815260206004820152601b60248201527f6661696c656420746f20736574207969656c642061646472657373000000000060448201526064015b60405180910390fd5b92915050565b60408051336024820152306044820152606480820184905282518083039091018152608490910182526020810180516001600160e01b03166323b872dd60e01b1790529051600091829182916001600160a01b038716916103609190611556565b6000604051808303816000865af19150503d806000811461039d576040519150601f19603f3d011682016040523d82523d6000602084013e6103a2565b606091505b50915091508180156103cc5750805115806103cc5750808060200190518101906103cc9190611572565b6104185760405162461bcd60e51b815260206004820152601d60248201527f5969656c643a205452414e5346455246524f4d5f494e5f4641494c454400000060448201526064016102f0565b604080516001600160a01b038881166024830152604480830188905283518084039091018152606490920183526020820180516001600160e01b031663095ea7b360e01b17905291516000928392908916916104749190611556565b6000604051808303816000865af19150503d80600081146104b1576040519150601f19603f3d011682016040523d82523d6000602084013e6104b6565b606091505b50915091508180156104e05750805115806104e05750808060200190518101906104e09190611572565b61052c5760405162461bcd60e51b815260206004820152601d60248201527f5969656c643a205452414e5346455246524f4d5f494e5f4641494c454400000060448201526064016102f0565b6040516001600160a01b0388811660248301526044820188905289169060640160408051601f198184030181529181526020820180516001600160e01b031663d699618560e01b179052516105819190611556565b6000604051808303816000865af19150503d80600081146105be576040519150601f19603f3d011682016040523d82523d6000602084013e6105c3565b606091505b505080955050846106165760405162461bcd60e51b815260206004820152601d60248201527f6661696c656420746f20707574207969656c6420696e746f20706f6f6c00000060448201526064016102f0565b505050509392505050565b6000546001600160a01b0316331461063857600080fd5b600080546001600160a01b0319166001600160a01b0392909216919091179055565b600080546001600160a01b0316331461067257600080fd5b826001600160a01b03168260405160240161068d919061158f565b60408051601f198184030181529181526020820180516001600160e01b0316633ca4ecab60e21b179052516106c29190611556565b6000604051808303816000865af19150503d80600081146106ff576040519150601f19603f3d011682016040523d82523d6000602084013e610704565b606091505b505080915050806102f95760405162461bcd60e51b815260206004820152601d60248201527f6661696c656420746f207365742072656465656d61626c65206461746500000060448201526064016102f0565b600080546001600160a01b0316331461076f57600080fd5b60405182151560248201526001600160a01b0384169060440160408051601f198184030181529181526020820180516001600160e01b031663ee72aef360e01b179052516107bd9190611556565b6000604051808303816000865af19150503d80600081146107fa576040519150601f19603f3d011682016040523d82523d6000602084013e6107ff565b606091505b505080915050806102f95760405162461bcd60e51b8152602060048201526024808201527f6661696c656420746f207365742077686574686572207969656c6420617070726044820152631bdd995960e21b60648201526084016102f0565b600080546001600160a01b0316331461087657600080fd5b60018260ff16108061088b575060038260ff16115b156108e65760405162461bcd60e51b815260206004820152602560248201527f4552524f523a20416363657074656420746f6b656e2069732065697468657220604482015264312c322c3360d81b60648201526084016102f0565b604080518082018252601a8082527f7365744163636570746564546f6b656e31286164647265737329000000000000602080840191909152835180850185528281527f7365744163636570746564546f6b656e322861646472657373290000000000008183015284518086019095529184527f7365744163636570746564546f6b656e3328616464726573732900000000000090840152909160ff8516600103610a45576040516001600160a01b03878116602483015288169084906044015b60408051601f1981840301815290829052916109c191611556565b60408051918290039091206020830180516001600160e01b03166001600160e01b0319909216919091179052516109f89190611556565b6000604051808303816000865af19150503d8060008114610a35576040519150601f19603f3d011682016040523d82523d6000602084013e610a3a565b606091505b505080945050610b30565b8460ff16600203610a70576040516001600160a01b03878116602483015288169083906044016109a6565b8460ff16600303610b30576040516001600160a01b038781166024830152881690829060440160408051601f198184030181529082905291610ab191611556565b60408051918290039091206020830180516001600160e01b03166001600160e01b031990921691909117905251610ae89190611556565b6000604051808303816000865af19150503d8060008114610b25576040519150601f19603f3d011682016040523d82523d6000602084013e610b2a565b606091505b50909450505b83610b7d5760405162461bcd60e51b815260206004820152601c60248201527f6661696c656420746f2073657420616363657074656420746f6b656e0000000060448201526064016102f0565b5050509392505050565b600080546001600160a01b03163314610b9f57600080fd5b6040516001600160a01b03848116602483015260448201849052600091829187169060640160408051601f198184030181529181526020820180516001600160e01b03166340c10f1960e01b17905251610bf99190611556565b6000604051808303816000865af19150503d8060008114610c36576040519150601f19603f3d011682016040523d82523d6000602084013e610c3b565b606091505b5091509150818015610c4f57506020815110155b610c905760405162461bcd60e51b815260206004820152601260248201527119985a5b1959081d1bc81b995dc81b5a5b9d60721b60448201526064016102f0565b50949350505050565b6000546001600160a01b03163314610cb057600080fd5b6040516001600160a01b038281166024830152600091829185169060440160408051601f198184030181529181526020820180516001600160e01b03166313af403560e01b17905251610d039190611556565b6000604051808303816000865af19150503d8060008114610d40576040519150601f19603f3d011682016040523d82523d6000602084013e610d45565b606091505b5091509150818015610d5957506020815110155b610da55760405162461bcd60e51b815260206004820152601b60248201527f4572723a206661696c656420746f206368616e6765206f776e6572000000000060448201526064016102f0565b50505050565b600080546001600160a01b03163314610dc357600080fd5b6040516001600160a01b038381166024830152600091829186169060440160408051601f198184030181529181526020820180516001600160e01b03166313af403560e01b17905251610e169190611556565b6000604051808303816000865af19150503d8060008114610e53576040519150601f19603f3d011682016040523d82523d6000602084013e610e58565b606091505b5091509150818015610e6c57506020815110155b610eb85760405162461bcd60e51b815260206004820152601b60248201527f6661696c656420746f206368616e676520706f6f6c206f776e6572000000000060448201526064016102f0565b509392505050565b600080546001600160a01b03163314610ed857600080fd5b826001600160a01b031682604051602401610ef591815260200190565b60408051601f198184030181529181526020820180516001600160e01b0316636d83470760e11b17905251610f2a9190611556565b6000604051808303816000865af19150503d8060008114610f67576040519150601f19603f3d011682016040523d82523d6000602084013e610f6c565b606091505b505080915050806102f95760405162461bcd60e51b815260206004820152602360248201527f6661696c656420746f2073657420776865746865722065786368616e6765207260448201526261746560e81b60648201526084016102f0565b600080546001600160a01b03163314610fe357600080fd5b604080518082018252601a8082527f6368616e6765537570706c794f6e4574682875696e743235362900000000000060208084019190915283518085019094529083527f6368616e6765537570706c794f6e4273632875696e7432353629000000000000908301529046600160ff821614801561111a57600080886001600160a01b0316868960405160240161107b91815260200190565b60408051601f19818403018152908290529161109691611556565b60408051918290039091206020830180516001600160e01b03166001600160e01b0319909216919091179052516110cd9190611556565b6000604051808303816000865af19150503d806000811461110a576040519150601f19603f3d011682016040523d82523d6000602084013e61110f565b606091505b506111d59350505050565b600080886001600160a01b0316858960405160240161113b91815260200190565b60408051601f19818403018152908290529161115691611556565b60408051918290039091206020830180516001600160e01b03166001600160e01b03199092169190911790525161118d9190611556565b6000604051808303816000865af19150503d80600081146111ca576040519150601f19603f3d011682016040523d82523d6000602084013e6111cf565b606091505b50505050505b5060009695505050505050565b6000546001600160a01b031633146111f957600080fd5b6040516001600160a01b038281166024830152600091829185169060440160408051601f198184030181529181526020820180516001600160e01b031663221b8a9560e11b1790525161124c9190611556565b6000604051808303816000865af19150503d8060008114611289576040519150601f19603f3d011682016040523d82523d6000602084013e61128e565b606091505b50915091508180156112a257506020815110155b610da55760405162461bcd60e51b815260206004820152601b60248201527f4572723a206661696c656420746f20736574206e657720706f6f6c000000000060448201526064016102f0565b80356001600160a01b038116811461130557600080fd5b919050565b6000806040838503121561131d57600080fd5b611326836112ee565b9150611334602084016112ee565b90509250929050565b60008060006060848603121561135257600080fd5b61135b846112ee565b9250611369602085016112ee565b9150604084013590509250925092565b60006020828403121561138b57600080fd5b611394826112ee565b9392505050565b634e487b7160e01b600052604160045260246000fd5b600080604083850312156113c457600080fd5b6113cd836112ee565b9150602083013567ffffffffffffffff808211156113ea57600080fd5b818501915085601f8301126113fe57600080fd5b8135818111156114105761141061139b565b604051601f8201601f19908116603f011681019083821181831017156114385761143861139b565b8160405282815288602084870101111561145157600080fd5b8260208601602083013760006020848301015280955050505050509250929050565b801515811461148157600080fd5b50565b6000806040838503121561149757600080fd5b6114a0836112ee565b915060208301356114b081611473565b809150509250929050565b6000806000606084860312156114d057600080fd5b6114d9846112ee565b92506114e7602085016112ee565b9150604084013560ff811681146114fd57600080fd5b809150509250925092565b6000806040838503121561151b57600080fd5b611524836112ee565b946020939093013593505050565b60005b8381101561154d578181015183820152602001611535565b50506000910152565b60008251611568818460208701611532565b9190910192915050565b60006020828403121561158457600080fd5b815161139481611473565b60208152600082518060208401526115ae816040850160208701611532565b601f01601f1916919091016040019291505056fea26469706673582212201c78a9f86e6f82bdbef422ef75043391697f7c7e598cc8f34b5526512c0beaf764736f6c63430008130033",
    "sourcePath": "/home/usih/go/src/smart_contract/surry/src/TUINController.sol",
    "compiler": {
        "name": "solc",
        "version": "0.8.19+commit.7dd6d404"
    },
    "functionHashes": {
        "newMint(address,address,uint256)": "6cc37140",
        "owner()": "8da5cb5b",
        "putDepositYield(address,address,uint256)": "0a47dd35",
        "setAcceptedToken(address,address,uint8)": "2a57c13b",
        "setApproveYield(address,bool)": "29d0a02e",
        "setExchangeRate(address,uint256)": "bd5c5420",
        "setNewSupply(address,uint256)": "c37f27bc",
        "setOwner(address)": "13af4035",
        "setRedeemableDate(address,string)": "228f8a5e",
        "setTUINPoolOwner(address,address)": "ad9af643",
        "setTuinOwner(address,address)": "88844bb9",
        "setTuinPoolAddress(address,address)": "ecbf4b2c",
        "setYieldAddress(address,address)": "00f264d6"
    },
    "gasEstimates": {
        "creation": {
            "codeDepositCost": "1124800",
            "executionCost": "25402",
            "totalCost": "1150202"
        },
        "external": {
            "newMint(address,address,uint256)": "infinite",
            "owner()": "2404",
            "putDepositYield(address,address,uint256)": "infinite",
            "setAcceptedToken(address,address,uint8)": "infinite",
            "setApproveYield(address,bool)": "infinite",
            "setExchangeRate(address,uint256)": "infinite",
            "setNewSupply(address,uint256)": "infinite",
            "setOwner(address)": "26756",
            "setRedeemableDate(address,string)": "infinite",
            "setTUINPoolOwner(address,address)": "infinite",
            "setTuinOwner(address,address)": "infinite",
            "setTuinPoolAddress(address,address)": "infinite",
            "setYieldAddress(address,address)": "infinite"
        }
    }
}